{
  "_format": "hh-sol-artifact-1",
  "contractName": "NFT",
  "sourceName": "contracts/NFT.sol",
  "abi": [
    {
      "inputs": [],
      "stateMutability": "nonpayable",
      "type": "constructor"
    },
    {
      "inputs": [
        {
          "internalType": "address",
          "name": "sender",
          "type": "address"
        },
        {
          "internalType": "uint256",
          "name": "tokenId",
          "type": "uint256"
        },
        {
          "internalType": "address",
          "name": "owner",
          "type": "address"
        }
      ],
      "name": "ERC721IncorrectOwner",
      "type": "error"
    },
    {
      "inputs": [
        {
          "internalType": "address",
          "name": "operator",
          "type": "address"
        },
        {
          "internalType": "uint256",
          "name": "tokenId",
          "type": "uint256"
        }
      ],
      "name": "ERC721InsufficientApproval",
      "type": "error"
    },
    {
      "inputs": [
        {
          "internalType": "address",
          "name": "approver",
          "type": "address"
        }
      ],
      "name": "ERC721InvalidApprover",
      "type": "error"
    },
    {
      "inputs": [
        {
          "internalType": "address",
          "name": "operator",
          "type": "address"
        }
      ],
      "name": "ERC721InvalidOperator",
      "type": "error"
    },
    {
      "inputs": [
        {
          "internalType": "address",
          "name": "owner",
          "type": "address"
        }
      ],
      "name": "ERC721InvalidOwner",
      "type": "error"
    },
    {
      "inputs": [
        {
          "internalType": "address",
          "name": "receiver",
          "type": "address"
        }
      ],
      "name": "ERC721InvalidReceiver",
      "type": "error"
    },
    {
      "inputs": [
        {
          "internalType": "address",
          "name": "sender",
          "type": "address"
        }
      ],
      "name": "ERC721InvalidSender",
      "type": "error"
    },
    {
      "inputs": [
        {
          "internalType": "uint256",
          "name": "tokenId",
          "type": "uint256"
        }
      ],
      "name": "ERC721NonexistentToken",
      "type": "error"
    },
    {
      "inputs": [
        {
          "internalType": "address",
          "name": "owner",
          "type": "address"
        }
      ],
      "name": "OwnableInvalidOwner",
      "type": "error"
    },
    {
      "inputs": [
        {
          "internalType": "address",
          "name": "account",
          "type": "address"
        }
      ],
      "name": "OwnableUnauthorizedAccount",
      "type": "error"
    },
    {
      "anonymous": false,
      "inputs": [
        {
          "indexed": true,
          "internalType": "address",
          "name": "owner",
          "type": "address"
        },
        {
          "indexed": true,
          "internalType": "address",
          "name": "approved",
          "type": "address"
        },
        {
          "indexed": true,
          "internalType": "uint256",
          "name": "tokenId",
          "type": "uint256"
        }
      ],
      "name": "Approval",
      "type": "event"
    },
    {
      "anonymous": false,
      "inputs": [
        {
          "indexed": true,
          "internalType": "address",
          "name": "owner",
          "type": "address"
        },
        {
          "indexed": true,
          "internalType": "address",
          "name": "operator",
          "type": "address"
        },
        {
          "indexed": false,
          "internalType": "bool",
          "name": "approved",
          "type": "bool"
        }
      ],
      "name": "ApprovalForAll",
      "type": "event"
    },
    {
      "anonymous": false,
      "inputs": [
        {
          "indexed": false,
          "internalType": "uint256",
          "name": "_fromTokenId",
          "type": "uint256"
        },
        {
          "indexed": false,
          "internalType": "uint256",
          "name": "_toTokenId",
          "type": "uint256"
        }
      ],
      "name": "BatchMetadataUpdate",
      "type": "event"
    },
    {
      "anonymous": false,
      "inputs": [
        {
          "indexed": false,
          "internalType": "uint256",
          "name": "_tokenId",
          "type": "uint256"
        }
      ],
      "name": "MetadataUpdate",
      "type": "event"
    },
    {
      "anonymous": false,
      "inputs": [
        {
          "indexed": true,
          "internalType": "address",
          "name": "previousOwner",
          "type": "address"
        },
        {
          "indexed": true,
          "internalType": "address",
          "name": "newOwner",
          "type": "address"
        }
      ],
      "name": "OwnershipTransferred",
      "type": "event"
    },
    {
      "anonymous": false,
      "inputs": [
        {
          "indexed": true,
          "internalType": "address",
          "name": "from",
          "type": "address"
        },
        {
          "indexed": true,
          "internalType": "address",
          "name": "to",
          "type": "address"
        },
        {
          "indexed": true,
          "internalType": "uint256",
          "name": "tokenId",
          "type": "uint256"
        }
      ],
      "name": "Transfer",
      "type": "event"
    },
    {
      "inputs": [
        {
          "internalType": "address",
          "name": "to",
          "type": "address"
        },
        {
          "internalType": "uint256",
          "name": "tokenId",
          "type": "uint256"
        }
      ],
      "name": "approve",
      "outputs": [],
      "stateMutability": "nonpayable",
      "type": "function"
    },
    {
      "inputs": [
        {
          "internalType": "address",
          "name": "owner",
          "type": "address"
        }
      ],
      "name": "balanceOf",
      "outputs": [
        {
          "internalType": "uint256",
          "name": "",
          "type": "uint256"
        }
      ],
      "stateMutability": "view",
      "type": "function"
    },
    {
      "inputs": [
        {
          "internalType": "uint256",
          "name": "",
          "type": "uint256"
        }
      ],
      "name": "creators",
      "outputs": [
        {
          "internalType": "address",
          "name": "",
          "type": "address"
        }
      ],
      "stateMutability": "view",
      "type": "function"
    },
    {
      "inputs": [
        {
          "internalType": "uint256",
          "name": "tokenId",
          "type": "uint256"
        }
      ],
      "name": "getApproved",
      "outputs": [
        {
          "internalType": "address",
          "name": "",
          "type": "address"
        }
      ],
      "stateMutability": "view",
      "type": "function"
    },
    {
      "inputs": [
        {
          "internalType": "address",
          "name": "owner",
          "type": "address"
        },
        {
          "internalType": "address",
          "name": "operator",
          "type": "address"
        }
      ],
      "name": "isApprovedForAll",
      "outputs": [
        {
          "internalType": "bool",
          "name": "",
          "type": "bool"
        }
      ],
      "stateMutability": "view",
      "type": "function"
    },
    {
      "inputs": [
        {
          "internalType": "address",
          "name": "to",
          "type": "address"
        },
        {
          "internalType": "string",
          "name": "uri",
          "type": "string"
        }
      ],
      "name": "mint",
      "outputs": [
        {
          "internalType": "uint256",
          "name": "",
          "type": "uint256"
        }
      ],
      "stateMutability": "nonpayable",
      "type": "function"
    },
    {
      "inputs": [],
      "name": "name",
      "outputs": [
        {
          "internalType": "string",
          "name": "",
          "type": "string"
        }
      ],
      "stateMutability": "view",
      "type": "function"
    },
    {
      "inputs": [],
      "name": "owner",
      "outputs": [
        {
          "internalType": "address",
          "name": "",
          "type": "address"
        }
      ],
      "stateMutability": "view",
      "type": "function"
    },
    {
      "inputs": [
        {
          "internalType": "uint256",
          "name": "tokenId",
          "type": "uint256"
        }
      ],
      "name": "ownerOf",
      "outputs": [
        {
          "internalType": "address",
          "name": "",
          "type": "address"
        }
      ],
      "stateMutability": "view",
      "type": "function"
    },
    {
      "inputs": [],
      "name": "renounceOwnership",
      "outputs": [],
      "stateMutability": "nonpayable",
      "type": "function"
    },
    {
      "inputs": [
        {
          "internalType": "address",
          "name": "from",
          "type": "address"
        },
        {
          "internalType": "address",
          "name": "to",
          "type": "address"
        },
        {
          "internalType": "uint256",
          "name": "tokenId",
          "type": "uint256"
        }
      ],
      "name": "safeTransferFrom",
      "outputs": [],
      "stateMutability": "nonpayable",
      "type": "function"
    },
    {
      "inputs": [
        {
          "internalType": "address",
          "name": "from",
          "type": "address"
        },
        {
          "internalType": "address",
          "name": "to",
          "type": "address"
        },
        {
          "internalType": "uint256",
          "name": "tokenId",
          "type": "uint256"
        },
        {
          "internalType": "bytes",
          "name": "data",
          "type": "bytes"
        }
      ],
      "name": "safeTransferFrom",
      "outputs": [],
      "stateMutability": "nonpayable",
      "type": "function"
    },
    {
      "inputs": [
        {
          "internalType": "address",
          "name": "operator",
          "type": "address"
        },
        {
          "internalType": "bool",
          "name": "approved",
          "type": "bool"
        }
      ],
      "name": "setApprovalForAll",
      "outputs": [],
      "stateMutability": "nonpayable",
      "type": "function"
    },
    {
      "inputs": [
        {
          "internalType": "bytes4",
          "name": "interfaceId",
          "type": "bytes4"
        }
      ],
      "name": "supportsInterface",
      "outputs": [
        {
          "internalType": "bool",
          "name": "",
          "type": "bool"
        }
      ],
      "stateMutability": "view",
      "type": "function"
    },
    {
      "inputs": [],
      "name": "symbol",
      "outputs": [
        {
          "internalType": "string",
          "name": "",
          "type": "string"
        }
      ],
      "stateMutability": "view",
      "type": "function"
    },
    {
      "inputs": [
        {
          "internalType": "uint256",
          "name": "tokenId",
          "type": "uint256"
        }
      ],
      "name": "tokenURI",
      "outputs": [
        {
          "internalType": "string",
          "name": "",
          "type": "string"
        }
      ],
      "stateMutability": "view",
      "type": "function"
    },
    {
      "inputs": [
        {
          "internalType": "address",
          "name": "from",
          "type": "address"
        },
        {
          "internalType": "address",
          "name": "to",
          "type": "address"
        },
        {
          "internalType": "uint256",
          "name": "tokenId",
          "type": "uint256"
        }
      ],
      "name": "transferFrom",
      "outputs": [],
      "stateMutability": "nonpayable",
      "type": "function"
    },
    {
      "inputs": [
        {
          "internalType": "address",
          "name": "newOwner",
          "type": "address"
        }
      ],
      "name": "transferOwnership",
      "outputs": [],
      "stateMutability": "nonpayable",
      "type": "function"
    }
  ],
  "bytecode": "0x608060405234801561000f575f80fd5b503360405180604001604052806005815260200164135e53919560da1b815250604051806040016040528060048152602001631353919560e21b815250815f908161005a919061018f565b506001610067828261018f565b5050506001600160a01b03811661009757604051631e4fbdf760e01b81525f600482015260240160405180910390fd5b6100a0816100a6565b50610249565b600780546001600160a01b038381166001600160a01b0319831681179093556040519116919082907f8be0079c531659141344cd1fd0a4f28419497f9722a3daafe3b4186f6b6457e0905f90a35050565b634e487b7160e01b5f52604160045260245ffd5b600181811c9082168061011f57607f821691505b60208210810361013d57634e487b7160e01b5f52602260045260245ffd5b50919050565b601f82111561018a57805f5260205f20601f840160051c810160208510156101685750805b601f840160051c820191505b81811015610187575f8155600101610174565b50505b505050565b81516001600160401b038111156101a8576101a86100f7565b6101bc816101b6845461010b565b84610143565b6020601f8211600181146101ee575f83156101d75750848201515b5f19600385901b1c1916600184901b178455610187565b5f84815260208120601f198516915b8281101561021d57878501518255602094850194600190920191016101fd565b508482101561023a57868401515f19600387901b60f8161c191681555b50505050600190811b01905550565b6113fe806102565f395ff3fe608060405234801561000f575f80fd5b5060043610610111575f3560e01c80638da5cb5b1161009e578063c87b56dd1161006e578063c87b56dd14610233578063cd53d08e14610246578063d0def5211461026e578063e985e9c514610281578063f2fde38b14610294575f80fd5b80638da5cb5b146101f457806395d89b4114610205578063a22cb4651461020d578063b88d4fde14610220575f80fd5b806323b872dd116100e457806323b872dd1461019257806342842e0e146101a55780636352211e146101b857806370a08231146101cb578063715018a6146101ec575f80fd5b806301ffc9a71461011557806306fdde031461013d578063081812fc14610152578063095ea7b31461017d575b5f80fd5b610128610123366004610f19565b6102a7565b60405190151581526020015b60405180910390f35b6101456102b7565b6040516101349190610f62565b610165610160366004610f74565b610346565b6040516001600160a01b039091168152602001610134565b61019061018b366004610fa6565b61036d565b005b6101906101a0366004610fce565b61037c565b6101906101b3366004610fce565b61040a565b6101656101c6366004610f74565b610429565b6101de6101d9366004611008565b610433565b604051908152602001610134565b610190610478565b6007546001600160a01b0316610165565b61014561048b565b61019061021b366004611021565b61049a565b61019061022e3660046110e5565b6104a5565b610145610241366004610f74565b6104bc565b610165610254366004610f74565b60096020525f90815260409020546001600160a01b031681565b6101de61027c36600461115c565b6104c7565b61012861028f3660046111ba565b610523565b6101906102a2366004611008565b610550565b5f6102b18261058d565b92915050565b60605f80546102c5906111eb565b80601f01602080910402602001604051908101604052809291908181526020018280546102f1906111eb565b801561033c5780601f106103135761010080835404028352916020019161033c565b820191905f5260205f20905b81548152906001019060200180831161031f57829003601f168201915b5050505050905090565b5f610350826105b1565b505f828152600460205260409020546001600160a01b03166102b1565b6103788282336105e9565b5050565b6001600160a01b0382166103aa57604051633250574960e11b81525f60048201526024015b60405180910390fd5b5f6103b68383336105f6565b9050836001600160a01b0316816001600160a01b031614610404576040516364283d7b60e01b81526001600160a01b03808616600483015260248201849052821660448201526064016103a1565b50505050565b61042483838360405180602001604052805f8152506104a5565b505050565b5f6102b1826105b1565b5f6001600160a01b03821661045d576040516322718ad960e21b81525f60048201526024016103a1565b506001600160a01b03165f9081526003602052604090205490565b6104806106e8565b6104895f610715565b565b6060600180546102c5906111eb565b610378338383610766565b6104b084848461037c565b61040484848484610804565b60606102b18261092a565b600880545f91826104d783611223565b90915550506008546104e98482610a35565b6104f38184610a4e565b5f81815260096020526040902080546001600160a01b0386166001600160a01b0319909116179055905092915050565b6001600160a01b039182165f90815260056020908152604080832093909416825291909152205460ff1690565b6105586106e8565b6001600160a01b03811661058157604051631e4fbdf760e01b81525f60048201526024016103a1565b61058a81610715565b50565b5f6001600160e01b03198216632483248360e11b14806102b157506102b182610a9d565b5f818152600260205260408120546001600160a01b0316806102b157604051637e27328960e01b8152600481018490526024016103a1565b6104248383836001610aec565b5f828152600260205260408120546001600160a01b039081169083161561062257610622818486610bf0565b6001600160a01b0381161561065c5761063d5f855f80610aec565b6001600160a01b0381165f90815260036020526040902080545f190190555b6001600160a01b0385161561068a576001600160a01b0385165f908152600360205260409020805460010190555b5f8481526002602052604080822080546001600160a01b0319166001600160a01b0389811691821790925591518793918516917fddf252ad1be2c89b69c2b068fc378daa952ba7f163c4a11628f55a4df523b3ef91a4949350505050565b6007546001600160a01b031633146104895760405163118cdaa760e01b81523360048201526024016103a1565b600780546001600160a01b038381166001600160a01b0319831681179093556040519116919082907f8be0079c531659141344cd1fd0a4f28419497f9722a3daafe3b4186f6b6457e0905f90a35050565b6001600160a01b03821661079857604051630b61174360e31b81526001600160a01b03831660048201526024016103a1565b6001600160a01b038381165f81815260056020908152604080832094871680845294825291829020805460ff191686151590811790915591519182527f17307eab39ab6107e8899845ad3d59bd9653f200f220920489ca2b5937696c31910160405180910390a3505050565b6001600160a01b0383163b1561040457604051630a85bd0160e11b81526001600160a01b0384169063150b7a0290610846903390889087908790600401611247565b6020604051808303815f875af1925050508015610880575060408051601f3d908101601f1916820190925261087d91810190611283565b60015b6108e7573d8080156108ad576040519150601f19603f3d011682016040523d82523d5f602084013e6108b2565b606091505b5080515f036108df57604051633250574960e11b81526001600160a01b03851660048201526024016103a1565b805181602001fd5b6001600160e01b03198116630a85bd0160e11b1461092357604051633250574960e11b81526001600160a01b03851660048201526024016103a1565b5050505050565b6060610935826105b1565b505f828152600660205260408120805461094e906111eb565b80601f016020809104026020016040519081016040528092919081815260200182805461097a906111eb565b80156109c55780601f1061099c576101008083540402835291602001916109c5565b820191905f5260205f20905b8154815290600101906020018083116109a857829003601f168201915b505050505090505f6109e160408051602081019091525f815290565b905080515f036109f2575092915050565b815115610a24578082604051602001610a0c9291906112b5565b60405160208183030381529060405292505050919050565b610a2d84610c54565b949350505050565b610378828260405180602001604052805f815250610cc5565b5f828152600660205260409020610a65828261130d565b506040518281527ff8e1a15aba9398e019f0b49df1a4fde98ee17ae345cb5f6b5e2c27f5033e8ce79060200160405180910390a15050565b5f6001600160e01b031982166380ac58cd60e01b1480610acd57506001600160e01b03198216635b5e139f60e01b145b806102b157506301ffc9a760e01b6001600160e01b03198316146102b1565b8080610b0057506001600160a01b03821615155b15610bc1575f610b0f846105b1565b90506001600160a01b03831615801590610b3b5750826001600160a01b0316816001600160a01b031614155b8015610b4e5750610b4c8184610523565b155b15610b775760405163a9fbf51f60e01b81526001600160a01b03841660048201526024016103a1565b8115610bbf5783856001600160a01b0316826001600160a01b03167f8c5be1e5ebec7d5bd14f71427d1e84f3dd0314c0f7b2291e5b200ac8c7c3b92560405160405180910390a45b505b50505f90815260046020526040902080546001600160a01b0319166001600160a01b0392909216919091179055565b610bfb838383610cdb565b610424576001600160a01b038316610c2957604051637e27328960e01b8152600481018290526024016103a1565b60405163177e802f60e01b81526001600160a01b0383166004820152602481018290526044016103a1565b6060610c5f826105b1565b505f610c7560408051602081019091525f815290565b90505f815111610c935760405180602001604052805f815250610cbe565b80610c9d84610d3c565b604051602001610cae9291906112b5565b6040516020818303038152906040525b9392505050565b610ccf8383610dcc565b6104245f848484610804565b5f6001600160a01b03831615801590610a2d5750826001600160a01b0316846001600160a01b03161480610d145750610d148484610523565b80610a2d5750505f908152600460205260409020546001600160a01b03908116911614919050565b60605f610d4883610e2d565b60010190505f8167ffffffffffffffff811115610d6757610d6761105a565b6040519080825280601f01601f191660200182016040528015610d91576020820181803683370190505b5090508181016020015b5f19016f181899199a1a9b1b9c1cb0b131b232b360811b600a86061a8153600a8504945084610d9b57509392505050565b6001600160a01b038216610df557604051633250574960e11b81525f60048201526024016103a1565b5f610e0183835f6105f6565b90506001600160a01b03811615610424576040516339e3563760e11b81525f60048201526024016103a1565b5f8072184f03e93ff9f4daa797ed6e38ed64bf6a1f0160401b8310610e6b5772184f03e93ff9f4daa797ed6e38ed64bf6a1f0160401b830492506040015b6d04ee2d6d415b85acef81000000008310610e97576d04ee2d6d415b85acef8100000000830492506020015b662386f26fc100008310610eb557662386f26fc10000830492506010015b6305f5e1008310610ecd576305f5e100830492506008015b6127108310610ee157612710830492506004015b60648310610ef3576064830492506002015b600a83106102b15760010192915050565b6001600160e01b03198116811461058a575f80fd5b5f60208284031215610f29575f80fd5b8135610cbe81610f04565b5f81518084528060208401602086015e5f602082860101526020601f19601f83011685010191505092915050565b602081525f610cbe6020830184610f34565b5f60208284031215610f84575f80fd5b5035919050565b80356001600160a01b0381168114610fa1575f80fd5b919050565b5f8060408385031215610fb7575f80fd5b610fc083610f8b565b946020939093013593505050565b5f805f60608486031215610fe0575f80fd5b610fe984610f8b565b9250610ff760208501610f8b565b929592945050506040919091013590565b5f60208284031215611018575f80fd5b610cbe82610f8b565b5f8060408385031215611032575f80fd5b61103b83610f8b565b91506020830135801515811461104f575f80fd5b809150509250929050565b634e487b7160e01b5f52604160045260245ffd5b5f8067ffffffffffffffff8411156110885761108861105a565b50604051601f19601f85018116603f0116810181811067ffffffffffffffff821117156110b7576110b761105a565b6040528381529050808284018510156110ce575f80fd5b838360208301375f60208583010152509392505050565b5f805f80608085870312156110f8575f80fd5b61110185610f8b565b935061110f60208601610f8b565b925060408501359150606085013567ffffffffffffffff811115611131575f80fd5b8501601f81018713611141575f80fd5b6111508782356020840161106e565b91505092959194509250565b5f806040838503121561116d575f80fd5b61117683610f8b565b9150602083013567ffffffffffffffff811115611191575f80fd5b8301601f810185136111a1575f80fd5b6111b08582356020840161106e565b9150509250929050565b5f80604083850312156111cb575f80fd5b6111d483610f8b565b91506111e260208401610f8b565b90509250929050565b600181811c908216806111ff57607f821691505b60208210810361121d57634e487b7160e01b5f52602260045260245ffd5b50919050565b5f6001820161124057634e487b7160e01b5f52601160045260245ffd5b5060010190565b6001600160a01b03858116825284166020820152604081018390526080606082018190525f9061127990830184610f34565b9695505050505050565b5f60208284031215611293575f80fd5b8151610cbe81610f04565b5f81518060208401855e5f93019283525090919050565b5f610a2d6112c3838661129e565b8461129e565b601f82111561042457805f5260205f20601f840160051c810160208510156112ee5750805b601f840160051c820191505b81811015610923575f81556001016112fa565b815167ffffffffffffffff8111156113275761132761105a565b61133b8161133584546111eb565b846112c9565b6020601f82116001811461136d575f83156113565750848201515b5f19600385901b1c1916600184901b178455610923565b5f84815260208120601f198516915b8281101561139c578785015182556020948501946001909201910161137c565b50848210156113b957868401515f19600387901b60f8161c191681555b50505050600190811b0190555056fea26469706673582212208ad964b021b7fd9971673269628d4e6b26473d8b5ac72f5ef1d3fe3a66653c2f64736f6c634300081a0033",
  "linkReferences": {},
  "deployedLinkReferences": {}
}