{
  "_format": "hh-sol-artifact-1",
  "contractName": "Marketplace",
  "sourceName": "contracts/Marketplace.sol",
  "abi": [
    {
      "inputs": [],
      "stateMutability": "nonpayable",
      "type": "constructor"
    },
    {
      "inputs": [
        {
          "internalType": "address",
          "name": "owner",
          "type": "address"
        }
      ],
      "name": "OwnableInvalidOwner",
      "type": "error"
    },
    {
      "inputs": [
        {
          "internalType": "address",
          "name": "account",
          "type": "address"
        }
      ],
      "name": "OwnableUnauthorizedAccount",
      "type": "error"
    },
    {
      "anonymous": false,
      "inputs": [
        {
          "indexed": true,
          "internalType": "bytes32",
          "name": "listingId",
          "type": "bytes32"
        }
      ],
      "name": "Cancelled",
      "type": "event"
    },
    {
      "anonymous": false,
      "inputs": [
        {
          "indexed": true,
          "internalType": "bytes32",
          "name": "listingId",
          "type": "bytes32"
        },
        {
          "indexed": false,
          "internalType": "uint256",
          "name": "tokenId",
          "type": "uint256"
        },
        {
          "indexed": false,
          "internalType": "address",
          "name": "seller",
          "type": "address"
        },
        {
          "indexed": false,
          "internalType": "uint256",
          "name": "price",
          "type": "uint256"
        }
      ],
      "name": "Listed",
      "type": "event"
    },
    {
      "anonymous": false,
      "inputs": [
        {
          "indexed": true,
          "internalType": "address",
          "name": "previousOwner",
          "type": "address"
        },
        {
          "indexed": true,
          "internalType": "address",
          "name": "newOwner",
          "type": "address"
        }
      ],
      "name": "OwnershipTransferred",
      "type": "event"
    },
    {
      "anonymous": false,
      "inputs": [
        {
          "indexed": true,
          "internalType": "bytes32",
          "name": "listingId",
          "type": "bytes32"
        },
        {
          "indexed": false,
          "internalType": "uint256",
          "name": "tokenId",
          "type": "uint256"
        },
        {
          "indexed": false,
          "internalType": "address",
          "name": "buyer",
          "type": "address"
        },
        {
          "indexed": false,
          "internalType": "uint256",
          "name": "price",
          "type": "uint256"
        }
      ],
      "name": "Sold",
      "type": "event"
    },
    {
      "inputs": [
        {
          "internalType": "bytes32",
          "name": "listingId",
          "type": "bytes32"
        },
        {
          "internalType": "address",
          "name": "nftContract",
          "type": "address"
        }
      ],
      "name": "buyListing",
      "outputs": [],
      "stateMutability": "payable",
      "type": "function"
    },
    {
      "inputs": [
        {
          "internalType": "bytes32",
          "name": "listingId",
          "type": "bytes32"
        },
        {
          "internalType": "address",
          "name": "nftContract",
          "type": "address"
        }
      ],
      "name": "cancelListing",
      "outputs": [],
      "stateMutability": "nonpayable",
      "type": "function"
    },
    {
      "inputs": [
        {
          "internalType": "uint256",
          "name": "tokenId",
          "type": "uint256"
        },
        {
          "internalType": "uint256",
          "name": "price",
          "type": "uint256"
        },
        {
          "internalType": "uint256",
          "name": "duration",
          "type": "uint256"
        },
        {
          "internalType": "address",
          "name": "nftContract",
          "type": "address"
        }
      ],
      "name": "createListing",
      "outputs": [],
      "stateMutability": "nonpayable",
      "type": "function"
    },
    {
      "inputs": [
        {
          "internalType": "bytes32",
          "name": "",
          "type": "bytes32"
        }
      ],
      "name": "listings",
      "outputs": [
        {
          "internalType": "uint256",
          "name": "tokenId",
          "type": "uint256"
        },
        {
          "internalType": "address",
          "name": "seller",
          "type": "address"
        },
        {
          "internalType": "uint256",
          "name": "price",
          "type": "uint256"
        },
        {
          "internalType": "uint256",
          "name": "expiresAt",
          "type": "uint256"
        },
        {
          "internalType": "bool",
          "name": "active",
          "type": "bool"
        }
      ],
      "stateMutability": "view",
      "type": "function"
    },
    {
      "inputs": [],
      "name": "owner",
      "outputs": [
        {
          "internalType": "address",
          "name": "",
          "type": "address"
        }
      ],
      "stateMutability": "view",
      "type": "function"
    },
    {
      "inputs": [
        {
          "internalType": "address",
          "name": "",
          "type": "address"
        }
      ],
      "name": "pendingWithdrawals",
      "outputs": [
        {
          "internalType": "uint256",
          "name": "",
          "type": "uint256"
        }
      ],
      "stateMutability": "view",
      "type": "function"
    },
    {
      "inputs": [],
      "name": "platformFee",
      "outputs": [
        {
          "internalType": "uint96",
          "name": "",
          "type": "uint96"
        }
      ],
      "stateMutability": "view",
      "type": "function"
    },
    {
      "inputs": [],
      "name": "renounceOwnership",
      "outputs": [],
      "stateMutability": "nonpayable",
      "type": "function"
    },
    {
      "inputs": [
        {
          "internalType": "address",
          "name": "newOwner",
          "type": "address"
        }
      ],
      "name": "transferOwnership",
      "outputs": [],
      "stateMutability": "nonpayable",
      "type": "function"
    },
    {
      "inputs": [],
      "name": "withdraw",
      "outputs": [],
      "stateMutability": "nonpayable",
      "type": "function"
    }
  ],
  "bytecode": "0x60806040525f80546001600160a01b0316607d60a11b1790553480156022575f80fd5b503380604757604051631e4fbdf760e01b81525f600482015260240160405180910390fd5b604e816053565b5060a2565b5f80546001600160a01b038381166001600160a01b0319831681178455604051919092169283917f8be0079c531659141344cd1fd0a4f28419497f9722a3daafe3b4186f6b6457e09190a35050565b610a24806100af5f395ff3fe60806040526004361061008f575f3560e01c8063ae51f4d011610057578063ae51f4d014610144578063b740350514610157578063c18b8db414610176578063f2fde38b146101fc578063f3f437031461021b575f80fd5b806326232a2e146100935780633ccfd60b146100d5578063715018a6146100eb5780638da5cb5b146100ff5780638ebaae0814610125575b5f80fd5b34801561009e575f80fd5b505f546100b890600160a01b90046001600160601b031681565b6040516001600160601b0390911681526020015b60405180910390f35b3480156100e0575f80fd5b506100e9610254565b005b3480156100f6575f80fd5b506100e96102e7565b34801561010a575f80fd5b505f546040516001600160a01b0390911681526020016100cc565b348015610130575f80fd5b506100e961013f3660046108db565b6102fa565b6100e9610152366004610917565b610483565b348015610162575f80fd5b506100e9610171366004610917565b6106d0565b348015610181575f80fd5b506101ca610190366004610941565b600160208190525f9182526040909120805491810154600282015460038301546004909301546001600160a01b0390921692909160ff1685565b604080519586526001600160a01b0390941660208601529284019190915260608301521515608082015260a0016100cc565b348015610207575f80fd5b506100e9610216366004610958565b610808565b348015610226575f80fd5b50610246610235366004610958565b60026020525f908152604090205481565b6040519081526020016100cc565b335f90815260026020526040902054806102ab5760405162461bcd60e51b81526020600482015260136024820152724e6f7468696e6720746f20776974686472617760681b60448201526064015b60405180910390fd5b335f818152600260205260408082208290555183156108fc0291849190818181858888f193505050501580156102e3573d5f803e3d5ffd5b5050565b6102ef610845565b6102f85f610871565b565b60408051602081018690526bffffffffffffffffffffffff193360601b16918101919091524260548201525f906074016040516020818303038152906040528051906020012090506040518060a00160405280868152602001336001600160a01b031681526020018581526020018442610374919061098c565b8152600160209182018190525f848152818352604090819020845181559284015191830180546001600160a01b0319166001600160a01b03938416179055838101516002840155606084015160038401556080909301516004928301805460ff191691151591909117905591516323b872dd60e01b8152339181019190915230602482015260448101879052908316906323b872dd906064015f604051808303815f87803b158015610424575f80fd5b505af1158015610436573d5f803e3d5ffd5b5050604080518881523360208201529081018790528392507f9476dae4c844ddee04811d7a3e992629b37d00ef03ae388a57f5cb1d5f59d61e915060600160405180910390a25050505050565b5f828152600160205260409020600481015460ff166104d15760405162461bcd60e51b815260206004820152600a6024820152694e6f742061637469766560b01b60448201526064016102a2565b8060030154421061050e5760405162461bcd60e51b8152602060048201526007602482015266115e1c1a5c995960ca1b60448201526064016102a2565b80600201543410156105595760405162461bcd60e51b8152602060048201526014602482015273125b9cdd59999a58da595b9d081c185e5b595b9d60621b60448201526064016102a2565b5f805460028301546127109161058091600160a01b9091046001600160601b0316906109a5565b61058a91906109bc565b905080826002015461059c91906109db565b60018301546001600160a01b03165f90815260026020526040812080549091906105c790849061098c565b9091555081905060025f6105e25f546001600160a01b031690565b6001600160a01b03166001600160a01b031681526020019081526020015f205f82825461060f919061098c565b909155505081546040516323b872dd60e01b815230600482015233602482015260448101919091526001600160a01b038416906323b872dd906064015f604051808303815f87803b158015610662575f80fd5b505af1158015610674573d5f803e3d5ffd5b5050505060048201805460ff19169055815460028301546040805192835233602084015282015284907fb00052bc677541972c223b71de907078f133144d16929602b9e9e606cdbf67159060600160405180910390a250505050565b5f828152600160208190526040909120908101546001600160a01b031633146107285760405162461bcd60e51b815260206004820152600a6024820152692737ba1039b2b63632b960b11b60448201526064016102a2565b600481015460ff166107695760405162461bcd60e51b815260206004820152600a6024820152694e6f742061637469766560b01b60448201526064016102a2565b6004818101805460ff1916905581546040516323b872dd60e01b8152309281019290925233602483015260448201526001600160a01b038316906323b872dd906064015f604051808303815f87803b1580156107c3575f80fd5b505af11580156107d5573d5f803e3d5ffd5b50506040518592507fbaa1eb22f2a492ba1a5fea61b8df4d27c6c8b5f3971e63bb58fa14ff72eedb7091505f90a2505050565b610810610845565b6001600160a01b03811661083957604051631e4fbdf760e01b81525f60048201526024016102a2565b61084281610871565b50565b5f546001600160a01b031633146102f85760405163118cdaa760e01b81523360048201526024016102a2565b5f80546001600160a01b038381166001600160a01b0319831681178455604051919092169283917f8be0079c531659141344cd1fd0a4f28419497f9722a3daafe3b4186f6b6457e09190a35050565b80356001600160a01b03811681146108d6575f80fd5b919050565b5f805f80608085870312156108ee575f80fd5b84359350602085013592506040850135915061090c606086016108c0565b905092959194509250565b5f8060408385031215610928575f80fd5b82359150610938602084016108c0565b90509250929050565b5f60208284031215610951575f80fd5b5035919050565b5f60208284031215610968575f80fd5b610971826108c0565b9392505050565b634e487b7160e01b5f52601160045260245ffd5b8082018082111561099f5761099f610978565b92915050565b808202811582820484141761099f5761099f610978565b5f826109d657634e487b7160e01b5f52601260045260245ffd5b500490565b8181038181111561099f5761099f61097856fea2646970667358221220e0eb0dbb01f6c8b2b56f4f0716a2ec55e64028f2ae037f995a80ff5e5a69a9fc64736f6c634300081a0033",
  "linkReferences": {},
  "deployedLinkReferences": {}
}